:100000000EC01DC01CC01BC01AC019C018C017C02C
:1000100016C015C014C013C012C011C010C01124E6
:100020001FBECFE5D2E0DEBFCDBF20E0A0E6B0E04E
:1000300001C01D92A236B207E1F790D0DEC0E0CF3A
:100040003699FECF3D9824B185B190E0982F88274E
:10005000820F911D08958058682F880F770BCB0170
:1000600080D0880F892F881F990B80950895CF9392
:10007000C82F880FF0DFC7FD80958058CF91089575
:10008000CF92DF92FF920F931F93CF93DF9387B1AD
:100090008C7F816087B9369A81E895E2019709F0F3
:1000A000FDCFCEDFEC0187B18C7F826087B9369AB5
:1000B00081E895E2019709F0FDCFC2DF6C0187B1BD
:1000C000836087B9369A81E895E2019709F0FDCF00
:1000D0003699FECF3D9AF5B0009160001091610015
:1000E000812FC5DFCC0CDD1CCC0CDD1C0C0D1D1DC7
:1000F0001093610000936000CC0FDD1FC452DE4FEF
:100100006F2D70E0082E000C990B2BD036E09595E2
:1001100087953A95E1F7BE01680F791F80E090E07E
:1001200020E530E040E050E02DD022E330E040E038
:1001300050E041D0C09A2150310908F0FCCFC0985E
:10014000DF91CF911F910F91FF90DF90CF90089595
:1001500081E087BB83E886B917B80895F9DF90DF9F
:10016000FECF0024552704C0080E591F880F991F81
:10017000009729F076956795B8F37105B9F7802D4A
:10018000952F0895EE27FF27AA27BB2708C0A20FA7
:10019000B31FE41FF51F220F331F441F551F9695F1
:1001A00087957795679598F37040A9F7009799F729
:1001B000BD01CF010895A1E21A2EAA1BBB1BFD01B0
:1001C0000DC0AA1FBB1FEE1FFF1FA217B307E40736
:1001D000F50720F0A21BB30BE40BF50B661F771F8E
:1001E000881F991F1A9469F760957095809590956E
:0E01F0009B01AC01BD01CF010895F894FFCF33
:00000001FF
